{
  "_format": "hh-sol-artifact-1",
  "contractName": "BullnBear",
  "sourceName": "contracts/BullnBear.sol",
  "abi": [
    {
      "inputs": [
        {
          "internalType": "uint64",
          "name": "subscriptionId",
          "type": "uint64"
        }
      ],
      "stateMutability": "nonpayable",
      "type": "constructor"
    },
    {
      "inputs": [
        {
          "internalType": "address",
          "name": "have",
          "type": "address"
        },
        {
          "internalType": "address",
          "name": "want",
          "type": "address"
        }
      ],
      "name": "OnlyCoordinatorCanFulfill",
      "type": "error"
    },
    {
      "anonymous": false,
      "inputs": [
        {
          "indexed": true,
          "internalType": "address",
          "name": "owner",
          "type": "address"
        },
        {
          "indexed": true,
          "internalType": "address",
          "name": "approved",
          "type": "address"
        },
        {
          "indexed": true,
          "internalType": "uint256",
          "name": "tokenId",
          "type": "uint256"
        }
      ],
      "name": "Approval",
      "type": "event"
    },
    {
      "anonymous": false,
      "inputs": [
        {
          "indexed": true,
          "internalType": "address",
          "name": "owner",
          "type": "address"
        },
        {
          "indexed": true,
          "internalType": "address",
          "name": "operator",
          "type": "address"
        },
        {
          "indexed": false,
          "internalType": "bool",
          "name": "approved",
          "type": "bool"
        }
      ],
      "name": "ApprovalForAll",
      "type": "event"
    },
    {
      "anonymous": false,
      "inputs": [
        {
          "indexed": true,
          "internalType": "address",
          "name": "previousOwner",
          "type": "address"
        },
        {
          "indexed": true,
          "internalType": "address",
          "name": "newOwner",
          "type": "address"
        }
      ],
      "name": "OwnershipTransferred",
      "type": "event"
    },
    {
      "anonymous": false,
      "inputs": [
        {
          "indexed": true,
          "internalType": "address",
          "name": "from",
          "type": "address"
        },
        {
          "indexed": true,
          "internalType": "address",
          "name": "to",
          "type": "address"
        },
        {
          "indexed": true,
          "internalType": "uint256",
          "name": "tokenId",
          "type": "uint256"
        }
      ],
      "name": "Transfer",
      "type": "event"
    },
    {
      "inputs": [
        {
          "internalType": "address",
          "name": "to",
          "type": "address"
        },
        {
          "internalType": "uint256",
          "name": "tokenId",
          "type": "uint256"
        }
      ],
      "name": "approve",
      "outputs": [],
      "stateMutability": "nonpayable",
      "type": "function"
    },
    {
      "inputs": [
        {
          "internalType": "address",
          "name": "owner",
          "type": "address"
        }
      ],
      "name": "balanceOf",
      "outputs": [
        {
          "internalType": "uint256",
          "name": "",
          "type": "uint256"
        }
      ],
      "stateMutability": "view",
      "type": "function"
    },
    {
      "inputs": [
        {
          "internalType": "bytes",
          "name": "",
          "type": "bytes"
        }
      ],
      "name": "checkUpkeep",
      "outputs": [
        {
          "internalType": "bool",
          "name": "upkeepNeeded",
          "type": "bool"
        },
        {
          "internalType": "bytes",
          "name": "",
          "type": "bytes"
        }
      ],
      "stateMutability": "view",
      "type": "function"
    },
    {
      "inputs": [
        {
          "internalType": "uint256",
          "name": "tokenId",
          "type": "uint256"
        }
      ],
      "name": "getApproved",
      "outputs": [
        {
          "internalType": "address",
          "name": "",
          "type": "address"
        }
      ],
      "stateMutability": "view",
      "type": "function"
    },
    {
      "inputs": [],
      "name": "getLatestPrice",
      "outputs": [
        {
          "internalType": "int256",
          "name": "",
          "type": "int256"
        }
      ],
      "stateMutability": "view",
      "type": "function"
    },
    {
      "inputs": [
        {
          "internalType": "address",
          "name": "owner",
          "type": "address"
        },
        {
          "internalType": "address",
          "name": "operator",
          "type": "address"
        }
      ],
      "name": "isApprovedForAll",
      "outputs": [
        {
          "internalType": "bool",
          "name": "",
          "type": "bool"
        }
      ],
      "stateMutability": "view",
      "type": "function"
    },
    {
      "inputs": [],
      "name": "name",
      "outputs": [
        {
          "internalType": "string",
          "name": "",
          "type": "string"
        }
      ],
      "stateMutability": "view",
      "type": "function"
    },
    {
      "inputs": [],
      "name": "owner",
      "outputs": [
        {
          "internalType": "address",
          "name": "",
          "type": "address"
        }
      ],
      "stateMutability": "view",
      "type": "function"
    },
    {
      "inputs": [
        {
          "internalType": "uint256",
          "name": "tokenId",
          "type": "uint256"
        }
      ],
      "name": "ownerOf",
      "outputs": [
        {
          "internalType": "address",
          "name": "",
          "type": "address"
        }
      ],
      "stateMutability": "view",
      "type": "function"
    },
    {
      "inputs": [
        {
          "internalType": "bytes",
          "name": "",
          "type": "bytes"
        }
      ],
      "name": "performUpkeep",
      "outputs": [],
      "stateMutability": "nonpayable",
      "type": "function"
    },
    {
      "inputs": [],
      "name": "randomIndex",
      "outputs": [
        {
          "internalType": "uint256",
          "name": "",
          "type": "uint256"
        }
      ],
      "stateMutability": "view",
      "type": "function"
    },
    {
      "inputs": [
        {
          "internalType": "uint256",
          "name": "requestId",
          "type": "uint256"
        },
        {
          "internalType": "uint256[]",
          "name": "randomWords",
          "type": "uint256[]"
        }
      ],
      "name": "rawFulfillRandomWords",
      "outputs": [],
      "stateMutability": "nonpayable",
      "type": "function"
    },
    {
      "inputs": [],
      "name": "renounceOwnership",
      "outputs": [],
      "stateMutability": "nonpayable",
      "type": "function"
    },
    {
      "inputs": [
        {
          "internalType": "address",
          "name": "to",
          "type": "address"
        }
      ],
      "name": "safeMint",
      "outputs": [],
      "stateMutability": "nonpayable",
      "type": "function"
    },
    {
      "inputs": [
        {
          "internalType": "address",
          "name": "from",
          "type": "address"
        },
        {
          "internalType": "address",
          "name": "to",
          "type": "address"
        },
        {
          "internalType": "uint256",
          "name": "tokenId",
          "type": "uint256"
        }
      ],
      "name": "safeTransferFrom",
      "outputs": [],
      "stateMutability": "nonpayable",
      "type": "function"
    },
    {
      "inputs": [
        {
          "internalType": "address",
          "name": "from",
          "type": "address"
        },
        {
          "internalType": "address",
          "name": "to",
          "type": "address"
        },
        {
          "internalType": "uint256",
          "name": "tokenId",
          "type": "uint256"
        },
        {
          "internalType": "bytes",
          "name": "data",
          "type": "bytes"
        }
      ],
      "name": "safeTransferFrom",
      "outputs": [],
      "stateMutability": "nonpayable",
      "type": "function"
    },
    {
      "inputs": [
        {
          "internalType": "address",
          "name": "operator",
          "type": "address"
        },
        {
          "internalType": "bool",
          "name": "approved",
          "type": "bool"
        }
      ],
      "name": "setApprovalForAll",
      "outputs": [],
      "stateMutability": "nonpayable",
      "type": "function"
    },
    {
      "inputs": [
        {
          "internalType": "bytes4",
          "name": "interfaceId",
          "type": "bytes4"
        }
      ],
      "name": "supportsInterface",
      "outputs": [
        {
          "internalType": "bool",
          "name": "",
          "type": "bool"
        }
      ],
      "stateMutability": "view",
      "type": "function"
    },
    {
      "inputs": [],
      "name": "symbol",
      "outputs": [
        {
          "internalType": "string",
          "name": "",
          "type": "string"
        }
      ],
      "stateMutability": "view",
      "type": "function"
    },
    {
      "inputs": [
        {
          "internalType": "uint256",
          "name": "index",
          "type": "uint256"
        }
      ],
      "name": "tokenByIndex",
      "outputs": [
        {
          "internalType": "uint256",
          "name": "",
          "type": "uint256"
        }
      ],
      "stateMutability": "view",
      "type": "function"
    },
    {
      "inputs": [
        {
          "internalType": "address",
          "name": "owner",
          "type": "address"
        },
        {
          "internalType": "uint256",
          "name": "index",
          "type": "uint256"
        }
      ],
      "name": "tokenOfOwnerByIndex",
      "outputs": [
        {
          "internalType": "uint256",
          "name": "",
          "type": "uint256"
        }
      ],
      "stateMutability": "view",
      "type": "function"
    },
    {
      "inputs": [
        {
          "internalType": "uint256",
          "name": "tokenId",
          "type": "uint256"
        }
      ],
      "name": "tokenURI",
      "outputs": [
        {
          "internalType": "string",
          "name": "",
          "type": "string"
        }
      ],
      "stateMutability": "view",
      "type": "function"
    },
    {
      "inputs": [],
      "name": "totalSupply",
      "outputs": [
        {
          "internalType": "uint256",
          "name": "",
          "type": "uint256"
        }
      ],
      "stateMutability": "view",
      "type": "function"
    },
    {
      "inputs": [
        {
          "internalType": "address",
          "name": "from",
          "type": "address"
        },
        {
          "internalType": "address",
          "name": "to",
          "type": "address"
        },
        {
          "internalType": "uint256",
          "name": "tokenId",
          "type": "uint256"
        }
      ],
      "name": "transferFrom",
      "outputs": [],
      "stateMutability": "nonpayable",
      "type": "function"
    },
    {
      "inputs": [
        {
          "internalType": "address",
          "name": "newOwner",
          "type": "address"
        }
      ],
      "name": "transferOwnership",
      "outputs": [],
      "stateMutability": "nonpayable",
      "type": "function"
    },
    {
      "inputs": [],
      "name": "vrfRequestId",
      "outputs": [
        {
          "internalType": "uint256",
          "name": "",
          "type": "uint256"
        }
      ],
      "stateMutability": "view",
      "type": "function"
    }
  ],
  "bytecode": "0x60a0604052736168499c0cffcacd319c818142124b7a15e857ab601360006101000a81548173ffffffffffffffffffffffffffffffffffffffff021916908373ffffffffffffffffffffffffffffffffffffffff1602179055507fd89b2bf150e3b9e13446986e571fb9cab24b13cea0a43ea20a6049a85cc807cc60001b601455620927c0601560006101000a81548163ffffffff021916908363ffffffff1602179055506003601560046101000a81548161ffff021916908361ffff1602179055506001601560066101000a81548163ffffffff021916908363ffffffff16021790555060405180606001604052806040518060800160405280605c815260200162004bd0605c913981526020016040518060800160405280605c815260200162004ce6605c913981526020016040518060800160405280605d815260200162004b73605d913981525060169060036200015c929190620005a1565b5060405180606001604052806040518060800160405280605d815260200162004c89605d913981526020016040518060800160405280605d815260200162004d42605d913981526020016040518060800160405280605d815260200162004c2c605d91398152506017906003620001d5929190620005a1565b50348015620001e357600080fd5b5060405162004d9f38038062004d9f833981810160405281019062000209919062000770565b601360009054906101000a900473ffffffffffffffffffffffffffffffffffffffff166040518060400160405280600981526020017f42756c6c6e4265617200000000000000000000000000000000000000000000008152506040518060400160405280600581526020017f42424e46540000000000000000000000000000000000000000000000000000008152508160009080519060200190620002b092919062000608565b508060019080519060200190620002c992919062000608565b505050620002ec620002e06200041f60201b60201c565b6200042760201b60201c565b8073ffffffffffffffffffffffffffffffffffffffff1660808173ffffffffffffffffffffffffffffffffffffffff168152505050738a753747a1fa494ec906ce90e9f37563a8af630e600d60006101000a81548173ffffffffffffffffffffffffffffffffffffffff021916908373ffffffffffffffffffffffffffffffffffffffff16021790555062000386620004ed60201b60201c565b600e81905550601360009054906101000a900473ffffffffffffffffffffffffffffffffffffffff16601260006101000a81548173ffffffffffffffffffffffffffffffffffffffff021916908373ffffffffffffffffffffffffffffffffffffffff16021790555080601260146101000a81548167ffffffffffffffff021916908367ffffffffffffffff160217905550506200094c565b600033905090565b6000600b60009054906101000a900473ffffffffffffffffffffffffffffffffffffffff16905081600b60006101000a81548173ffffffffffffffffffffffffffffffffffffffff021916908373ffffffffffffffffffffffffffffffffffffffff1602179055508173ffffffffffffffffffffffffffffffffffffffff168173ffffffffffffffffffffffffffffffffffffffff167f8be0079c531659141344cd1fd0a4f28419497f9722a3daafe3b4186f6b6457e060405160405180910390a35050565b600080600d60009054906101000a900473ffffffffffffffffffffffffffffffffffffffff1673ffffffffffffffffffffffffffffffffffffffff1663feaf968c6040518163ffffffff1660e01b815260040160a06040518083038186803b1580156200055957600080fd5b505afa1580156200056e573d6000803e3d6000fd5b505050506040513d601f19601f820116820180604052508101906200059491906200085f565b5050509150508091505090565b828054828255906000526020600020908101928215620005f5579160200282015b82811115620005f4578251829080519060200190620005e392919062000608565b5091602001919060010190620005c2565b5b50905062000604919062000699565b5090565b828054620006169062000916565b90600052602060002090601f0160209004810192826200063a576000855562000686565b82601f106200065557805160ff191683800117855562000686565b8280016001018555821562000686579182015b828111156200068557825182559160200191906001019062000668565b5b509050620006959190620006c1565b5090565b5b80821115620006bd5760008181620006b39190620006e0565b506001016200069a565b5090565b5b80821115620006dc576000816000905550600101620006c2565b5090565b508054620006ee9062000916565b6000825580601f1062000702575062000723565b601f016020900490600052602060002090810190620007229190620006c1565b5b50565b600080fd5b600067ffffffffffffffff82169050919050565b6200074a816200072b565b81146200075657600080fd5b50565b6000815190506200076a816200073f565b92915050565b60006020828403121562000789576200078862000726565b5b6000620007998482850162000759565b91505092915050565b600069ffffffffffffffffffff82169050919050565b620007c381620007a2565b8114620007cf57600080fd5b50565b600081519050620007e381620007b8565b92915050565b6000819050919050565b620007fe81620007e9565b81146200080a57600080fd5b50565b6000815190506200081e81620007f3565b92915050565b6000819050919050565b620008398162000824565b81146200084557600080fd5b50565b60008151905062000859816200082e565b92915050565b600080600080600060a086880312156200087e576200087d62000726565b5b60006200088e88828901620007d2565b9550506020620008a1888289016200080d565b9450506040620008b48882890162000848565b9350506060620008c78882890162000848565b9250506080620008da88828901620007d2565b9150509295509295909350565b7f4e487b7100000000000000000000000000000000000000000000000000000000600052602260045260246000fd5b600060028204905060018216806200092f57607f821691505b60208210811415620009465762000945620008e7565b5b50919050565b6080516142046200096f60003960008181610737015261078b01526142046000f3fe608060405234801561001057600080fd5b506004361061018e5760003560e01c80636352211e116100de57806395d89b4111610097578063c87b56dd11610071578063c87b56dd14610482578063dc2337e2146104b2578063e985e9c5146104d0578063f2fde38b146105005761018e565b806395d89b411461042c578063a22cb4651461044a578063b88d4fde146104665761018e565b80636352211e146103555780636e04ff0d1461038557806370a08231146103b6578063715018a6146103e65780638da5cb5b146103f05780638e15f4731461040e5761018e565b80631fe543e31161014b57806340d097c31161012557806340d097c3146102d157806342842e0e146102ed5780634585e33b146103095780634f6ccce7146103255761018e565b80631fe543e31461026957806323b872dd146102855780632f745c59146102a15761018e565b806301ffc9a71461019357806306fdde03146101c3578063081812fc146101e1578063095ea7b31461021157806318160ddd1461022d57806318a7ea5f1461024b575b600080fd5b6101ad60048036038101906101a89190612bc0565b61051c565b6040516101ba9190612c08565b60405180910390f35b6101cb61052e565b6040516101d89190612cbc565b60405180910390f35b6101fb60048036038101906101f69190612d14565b6105c0565b6040516102089190612d82565b60405180910390f35b61022b60048036038101906102269190612dc9565b610606565b005b61023561071e565b6040516102429190612e18565b60405180910390f35b61025361072b565b6040516102609190612e18565b60405180910390f35b610283600480360381019061027e9190612f7b565b610735565b005b61029f600480360381019061029a9190612fd7565b6107f5565b005b6102bb60048036038101906102b69190612dc9565b610855565b6040516102c89190612e18565b60405180910390f35b6102eb60048036038101906102e6919061302a565b6108fa565b005b61030760048036038101906103029190612fd7565b610a55565b005b610323600480360381019061031e91906130b2565b610a75565b005b61033f600480360381019061033a9190612d14565b610c51565b60405161034c9190612e18565b60405180910390f35b61036f600480360381019061036a9190612d14565b610cc2565b60405161037c9190612d82565b60405180910390f35b61039f600480360381019061039a91906130b2565b610d74565b6040516103ad929190613154565b60405180910390f35b6103d060048036038101906103cb919061302a565b610d8e565b6040516103dd9190612e18565b60405180910390f35b6103ee610e46565b005b6103f8610e5a565b6040516104059190612d82565b60405180910390f35b610416610e84565b604051610423919061319d565b60405180910390f35b610434610f34565b6040516104419190612cbc565b60405180910390f35b610464600480360381019061045f91906131e4565b610fc6565b005b610480600480360381019061047b91906132d9565b610fdc565b005b61049c60048036038101906104979190612d14565b61103e565b6040516104a99190612cbc565b60405180910390f35b6104ba611050565b6040516104c79190612e18565b60405180910390f35b6104ea60048036038101906104e5919061335c565b61105a565b6040516104f79190612c08565b60405180910390f35b61051a6004803603810190610515919061302a565b6110ee565b005b600061052782611172565b9050919050565b60606000805461053d906133cb565b80601f0160208091040260200160405190810160405280929190818152602001828054610569906133cb565b80156105b65780601f1061058b576101008083540402835291602001916105b6565b820191906000526020600020905b81548152906001019060200180831161059957829003601f168201915b5050505050905090565b60006105cb826111ec565b6004600083815260200190815260200160002060009054906101000a900473ffffffffffffffffffffffffffffffffffffffff169050919050565b600061061182610cc2565b90508073ffffffffffffffffffffffffffffffffffffffff168373ffffffffffffffffffffffffffffffffffffffff161415610682576040517f08c379a00000000000000000000000000000000000000000000000000000000081526004016106799061346f565b60405180910390fd5b8073ffffffffffffffffffffffffffffffffffffffff166106a1611237565b73ffffffffffffffffffffffffffffffffffffffff1614806106d057506106cf816106ca611237565b61105a565b5b61070f576040517f08c379a000000000000000000000000000000000000000000000000000000000815260040161070690613501565b60405180910390fd5b610719838361123f565b505050565b6000600880549050905090565b6000600f54905090565b7f000000000000000000000000000000000000000000000000000000000000000073ffffffffffffffffffffffffffffffffffffffff163373ffffffffffffffffffffffffffffffffffffffff16146107e757337f00000000000000000000000000000000000000000000000000000000000000006040517f1cf993f40000000000000000000000000000000000000000000000000000000081526004016107de929190613521565b60405180910390fd5b6107f182826112f8565b5050565b610806610800611237565b826113bd565b610845576040517f08c379a000000000000000000000000000000000000000000000000000000000815260040161083c906135bc565b60405180910390fd5b610850838383611452565b505050565b600061086083610d8e565b82106108a1576040517f08c379a00000000000000000000000000000000000000000000000000000000081526004016108989061364e565b60405180910390fd5b600660008473ffffffffffffffffffffffffffffffffffffffff1673ffffffffffffffffffffffffffffffffffffffff168152602001908152602001600020600083815260200190815260200160002054905092915050565b6109026116b9565b600061090e600c611737565b905061091a600c611745565b610924828261175b565b6000601660008154811061093b5761093a61366e565b5b906000526020600020018054610950906133cb565b80601f016020809104026020016040519081016040528092919081815260200182805461097c906133cb565b80156109c95780601f1061099e576101008083540402835291602001916109c9565b820191906000526020600020905b8154815290600101906020018083116109ac57829003601f168201915b505050505090506109da8282611779565b610a506040518060400160405280600d81526020017f4d696e74656420746f6b656e2000000000000000000000000000000000000000815250836040518060400160405280601981526020017f20616e642061737369676e656420746f6b656e2075726c3a2000000000000000815250846117ed565b505050565b610a7083838360405180602001604052806000815250610fdc565b505050565b6000610a7f610e84565b9050600e54811215610adc576040518060400160405280600481526020017f626561720000000000000000000000000000000000000000000000000000000081525060109080519060200190610ad6929190612ab1565b50610b34565b600e54811315610b33576040518060400160405280600481526020017f62756c6c0000000000000000000000000000000000000000000000000000000081525060109080519060200190610b31929190612ab1565b505b5b600e548114610c4c5780600e81905550601260009054906101000a900473ffffffffffffffffffffffffffffffffffffffff1673ffffffffffffffffffffffffffffffffffffffff16635d3b1d30601454601260149054906101000a900467ffffffffffffffff16601560049054906101000a900461ffff16601560009054906101000a900463ffffffff16601560069054906101000a900463ffffffff166040518663ffffffff1660e01b8152600401610bf3959493929190613715565b602060405180830381600087803b158015610c0d57600080fd5b505af1158015610c21573d6000803e3d6000fd5b505050506040513d601f19601f82011682018060405250810190610c45919061377d565b600f819055505b505050565b6000610c5b61071e565b8210610c9c576040517f08c379a0000000000000000000000000000000000000000000000000000000008152600401610c939061381c565b60405180910390fd5b60088281548110610cb057610caf61366e565b5b90600052602060002001549050919050565b6000806002600084815260200190815260200160002060009054906101000a900473ffffffffffffffffffffffffffffffffffffffff169050600073ffffffffffffffffffffffffffffffffffffffff168173ffffffffffffffffffffffffffffffffffffffff161415610d6b576040517f08c379a0000000000000000000000000000000000000000000000000000000008152600401610d6290613888565b60405180910390fd5b80915050919050565b60006060600e54610d83610e84565b141591509250929050565b60008073ffffffffffffffffffffffffffffffffffffffff168273ffffffffffffffffffffffffffffffffffffffff161415610dff576040517f08c379a0000000000000000000000000000000000000000000000000000000008152600401610df69061391a565b60405180910390fd5b600360008373ffffffffffffffffffffffffffffffffffffffff1673ffffffffffffffffffffffffffffffffffffffff168152602001908152602001600020549050919050565b610e4e6116b9565b610e58600061188f565b565b6000600b60009054906101000a900473ffffffffffffffffffffffffffffffffffffffff16905090565b600080600d60009054906101000a900473ffffffffffffffffffffffffffffffffffffffff1673ffffffffffffffffffffffffffffffffffffffff1663feaf968c6040518163ffffffff1660e01b815260040160a06040518083038186803b158015610eef57600080fd5b505afa158015610f03573d6000803e3d6000fd5b505050506040513d601f19601f82011682018060405250810190610f2791906139a8565b5050509150508091505090565b606060018054610f43906133cb565b80601f0160208091040260200160405190810160405280929190818152602001828054610f6f906133cb565b8015610fbc5780601f10610f9157610100808354040283529160200191610fbc565b820191906000526020600020905b815481529060010190602001808311610f9f57829003601f168201915b5050505050905090565b610fd8610fd1611237565b8383611955565b5050565b610fed610fe7611237565b836113bd565b61102c576040517f08c379a0000000000000000000000000000000000000000000000000000000008152600401611023906135bc565b60405180910390fd5b61103884848484611ac2565b50505050565b606061104982611b1e565b9050919050565b6000601154905090565b6000600560008473ffffffffffffffffffffffffffffffffffffffff1673ffffffffffffffffffffffffffffffffffffffff16815260200190815260200160002060008373ffffffffffffffffffffffffffffffffffffffff1673ffffffffffffffffffffffffffffffffffffffff16815260200190815260200160002060009054906101000a900460ff16905092915050565b6110f66116b9565b600073ffffffffffffffffffffffffffffffffffffffff168173ffffffffffffffffffffffffffffffffffffffff161415611166576040517f08c379a000000000000000000000000000000000000000000000000000000000815260040161115d90613a95565b60405180910390fd5b61116f8161188f565b50565b60007f780e9d63000000000000000000000000000000000000000000000000000000007bffffffffffffffffffffffffffffffffffffffffffffffffffffffff1916827bffffffffffffffffffffffffffffffffffffffffffffffffffffffff191614806111e557506111e482611c31565b5b9050919050565b6111f581611d13565b611234576040517f08c379a000000000000000000000000000000000000000000000000000000000815260040161122b90613888565b60405180910390fd5b50565b600033905090565b816004600083815260200190815260200160002060006101000a81548173ffffffffffffffffffffffffffffffffffffffff021916908373ffffffffffffffffffffffffffffffffffffffff160217905550808273ffffffffffffffffffffffffffffffffffffffff166112b283610cc2565b73ffffffffffffffffffffffffffffffffffffffff167f8c5be1e5ebec7d5bd14f71427d1e84f3dd0314c0f7b2291e5b200ac8c7c3b92560405160405180910390a45050565b60028160008151811061130e5761130d61366e565b5b60200260200101516113209190613ae4565b6011819055506113b960108054611336906133cb565b80601f0160208091040260200160405190810160405280929190818152602001828054611362906133cb565b80156113af5780601f10611384576101008083540402835291602001916113af565b820191906000526020600020905b81548152906001019060200180831161139257829003601f168201915b5050505050611d7f565b5050565b6000806113c983610cc2565b90508073ffffffffffffffffffffffffffffffffffffffff168473ffffffffffffffffffffffffffffffffffffffff16148061140b575061140a818561105a565b5b8061144957508373ffffffffffffffffffffffffffffffffffffffff16611431846105c0565b73ffffffffffffffffffffffffffffffffffffffff16145b91505092915050565b8273ffffffffffffffffffffffffffffffffffffffff1661147282610cc2565b73ffffffffffffffffffffffffffffffffffffffff16146114c8576040517f08c379a00000000000000000000000000000000000000000000000000000000081526004016114bf90613b87565b60405180910390fd5b600073ffffffffffffffffffffffffffffffffffffffff168273ffffffffffffffffffffffffffffffffffffffff161415611538576040517f08c379a000000000000000000000000000000000000000000000000000000000815260040161152f90613c19565b60405180910390fd5b611543838383611fc2565b61154e60008261123f565b6001600360008573ffffffffffffffffffffffffffffffffffffffff1673ffffffffffffffffffffffffffffffffffffffff168152602001908152602001600020600082825461159e9190613c68565b925050819055506001600360008473ffffffffffffffffffffffffffffffffffffffff1673ffffffffffffffffffffffffffffffffffffffff16815260200190815260200160002060008282546115f59190613c9c565b92505081905550816002600083815260200190815260200160002060006101000a81548173ffffffffffffffffffffffffffffffffffffffff021916908373ffffffffffffffffffffffffffffffffffffffff160217905550808273ffffffffffffffffffffffffffffffffffffffff168473ffffffffffffffffffffffffffffffffffffffff167fddf252ad1be2c89b69c2b068fc378daa952ba7f163c4a11628f55a4df523b3ef60405160405180910390a46116b4838383611fd2565b505050565b6116c1611237565b73ffffffffffffffffffffffffffffffffffffffff166116df610e5a565b73ffffffffffffffffffffffffffffffffffffffff1614611735576040517f08c379a000000000000000000000000000000000000000000000000000000000815260040161172c90613d3e565b60405180910390fd5b565b600081600001549050919050565b6001816000016000828254019250508190555050565b611775828260405180602001604052806000815250611fd7565b5050565b61178282611d13565b6117c1576040517f08c379a00000000000000000000000000000000000000000000000000000000081526004016117b890613dd0565b60405180910390fd5b80600a600084815260200190815260200160002090805190602001906117e8929190612ab1565b505050565b611889848484846040516024016118079493929190613df0565b6040516020818303038152906040527f6c98dae2000000000000000000000000000000000000000000000000000000007bffffffffffffffffffffffffffffffffffffffffffffffffffffffff19166020820180517bffffffffffffffffffffffffffffffffffffffffffffffffffffffff8381831617835250505050612032565b50505050565b6000600b60009054906101000a900473ffffffffffffffffffffffffffffffffffffffff16905081600b60006101000a81548173ffffffffffffffffffffffffffffffffffffffff021916908373ffffffffffffffffffffffffffffffffffffffff1602179055508173ffffffffffffffffffffffffffffffffffffffff168173ffffffffffffffffffffffffffffffffffffffff167f8be0079c531659141344cd1fd0a4f28419497f9722a3daafe3b4186f6b6457e060405160405180910390a35050565b8173ffffffffffffffffffffffffffffffffffffffff168373ffffffffffffffffffffffffffffffffffffffff1614156119c4576040517f08c379a00000000000000000000000000000000000000000000000000000000081526004016119bb90613e96565b60405180910390fd5b80600560008573ffffffffffffffffffffffffffffffffffffffff1673ffffffffffffffffffffffffffffffffffffffff16815260200190815260200160002060008473ffffffffffffffffffffffffffffffffffffffff1673ffffffffffffffffffffffffffffffffffffffff16815260200190815260200160002060006101000a81548160ff0219169083151502179055508173ffffffffffffffffffffffffffffffffffffffff168373ffffffffffffffffffffffffffffffffffffffff167f17307eab39ab6107e8899845ad3d59bd9653f200f220920489ca2b5937696c3183604051611ab59190612c08565b60405180910390a3505050565b611acd848484611452565b611ad98484848461205b565b611b18576040517f08c379a0000000000000000000000000000000000000000000000000000000008152600401611b0f90613f28565b60405180910390fd5b50505050565b6060611b29826111ec565b6000600a60008481526020019081526020016000208054611b49906133cb565b80601f0160208091040260200160405190810160405280929190818152602001828054611b75906133cb565b8015611bc25780601f10611b9757610100808354040283529160200191611bc2565b820191906000526020600020905b815481529060010190602001808311611ba557829003601f168201915b505050505090506000611bd36121f2565b9050600081511415611be9578192505050611c2c565b600082511115611c1e578082604051602001611c06929190613f84565b60405160208183030381529060405292505050611c2c565b611c2784612209565b925050505b919050565b60007f80ac58cd000000000000000000000000000000000000000000000000000000007bffffffffffffffffffffffffffffffffffffffffffffffffffffffff1916827bffffffffffffffffffffffffffffffffffffffffffffffffffffffff19161480611cfc57507f5b5e139f000000000000000000000000000000000000000000000000000000007bffffffffffffffffffffffffffffffffffffffffffffffffffffffff1916827bffffffffffffffffffffffffffffffffffffffffffffffffffffffff1916145b80611d0c5750611d0b82612271565b5b9050919050565b60008073ffffffffffffffffffffffffffffffffffffffff166002600084815260200190815260200160002060009054906101000a900473ffffffffffffffffffffffffffffffffffffffff1673ffffffffffffffffffffffffffffffffffffffff1614159050919050565b6000611d8b600c611737565b9050611dcc826040518060400160405280600481526020017f62756c6c000000000000000000000000000000000000000000000000000000008152506122db565b15611ea75760005b81811015611ea157611e8e81601660115481548110611df657611df561366e565b5b906000526020600020018054611e0b906133cb565b80601f0160208091040260200160405190810160405280929190818152602001828054611e37906133cb565b8015611e845780601f10611e5957610100808354040283529160200191611e84565b820191906000526020600020905b815481529060010190602001808311611e6757829003601f168201915b5050505050611779565b8080611e9990613fa8565b915050611dd4565b50611fbe565b611ee6826040518060400160405280600481526020017f62656172000000000000000000000000000000000000000000000000000000008152506122db565b15611fbd5760005b81811015611fbb57611fa881601760115481548110611f1057611f0f61366e565b5b906000526020600020018054611f25906133cb565b80601f0160208091040260200160405190810160405280929190818152602001828054611f51906133cb565b8015611f9e5780601f10611f7357610100808354040283529160200191611f9e565b820191906000526020600020905b815481529060010190602001808311611f8157829003601f168201915b5050505050611779565b8080611fb390613fa8565b915050611eee565b505b5b5050565b611fcd838383612334565b505050565b505050565b611fe18383612448565b611fee600084848461205b565b61202d576040517f08c379a000000000000000000000000000000000000000000000000000000000815260040161202490613f28565b60405180910390fd5b505050565b60008151905060006a636f6e736f6c652e6c6f679050602083016000808483855afa5050505050565b600061207c8473ffffffffffffffffffffffffffffffffffffffff16612622565b156121e5578373ffffffffffffffffffffffffffffffffffffffff1663150b7a026120a5611237565b8786866040518563ffffffff1660e01b81526004016120c79493929190613ff1565b602060405180830381600087803b1580156120e157600080fd5b505af192505050801561211257506040513d601f19601f8201168201806040525081019061210f9190614052565b60015b612195573d8060008114612142576040519150601f19603f3d011682016040523d82523d6000602084013e612147565b606091505b5060008151141561218d576040517f08c379a000000000000000000000000000000000000000000000000000000000815260040161218490613f28565b60405180910390fd5b805181602001fd5b63150b7a0260e01b7bffffffffffffffffffffffffffffffffffffffffffffffffffffffff1916817bffffffffffffffffffffffffffffffffffffffffffffffffffffffff1916149150506121ea565b600190505b949350505050565b606060405180602001604052806000815250905090565b6060612214826111ec565b600061221e6121f2565b9050600081511161223e5760405180602001604052806000815250612269565b8061224884612645565b604051602001612259929190613f84565b6040516020818303038152906040525b915050919050565b60007f01ffc9a7000000000000000000000000000000000000000000000000000000007bffffffffffffffffffffffffffffffffffffffffffffffffffffffff1916827bffffffffffffffffffffffffffffffffffffffffffffffffffffffff1916149050919050565b6000816040516020016122ee919061407f565b6040516020818303038152906040528051906020012083604051602001612315919061407f565b6040516020818303038152906040528051906020012014905092915050565b61233f8383836127a6565b600073ffffffffffffffffffffffffffffffffffffffff168373ffffffffffffffffffffffffffffffffffffffff1614156123825761237d816127ab565b6123c1565b8173ffffffffffffffffffffffffffffffffffffffff168373ffffffffffffffffffffffffffffffffffffffff16146123c0576123bf83826127f4565b5b5b600073ffffffffffffffffffffffffffffffffffffffff168273ffffffffffffffffffffffffffffffffffffffff161415612404576123ff81612961565b612443565b8273ffffffffffffffffffffffffffffffffffffffff168273ffffffffffffffffffffffffffffffffffffffff1614612442576124418282612a32565b5b5b505050565b600073ffffffffffffffffffffffffffffffffffffffff168273ffffffffffffffffffffffffffffffffffffffff1614156124b8576040517f08c379a00000000000000000000000000000000000000000000000000000000081526004016124af906140e2565b60405180910390fd5b6124c181611d13565b15612501576040517f08c379a00000000000000000000000000000000000000000000000000000000081526004016124f89061414e565b60405180910390fd5b61250d60008383611fc2565b6001600360008473ffffffffffffffffffffffffffffffffffffffff1673ffffffffffffffffffffffffffffffffffffffff168152602001908152602001600020600082825461255d9190613c9c565b92505081905550816002600083815260200190815260200160002060006101000a81548173ffffffffffffffffffffffffffffffffffffffff021916908373ffffffffffffffffffffffffffffffffffffffff160217905550808273ffffffffffffffffffffffffffffffffffffffff16600073ffffffffffffffffffffffffffffffffffffffff167fddf252ad1be2c89b69c2b068fc378daa952ba7f163c4a11628f55a4df523b3ef60405160405180910390a461261e60008383611fd2565b5050565b6000808273ffffffffffffffffffffffffffffffffffffffff163b119050919050565b6060600082141561268d576040518060400160405280600181526020017f300000000000000000000000000000000000000000000000000000000000000081525090506127a1565b600082905060005b600082146126bf5780806126a890613fa8565b915050600a826126b8919061416e565b9150612695565b60008167ffffffffffffffff8111156126db576126da612e38565b5b6040519080825280601f01601f19166020018201604052801561270d5781602001600182028036833780820191505090505b5090505b6000851461279a576001826127269190613c68565b9150600a856127359190613ae4565b60306127419190613c9c565b60f81b8183815181106127575761275661366e565b5b60200101907effffffffffffffffffffffffffffffffffffffffffffffffffffffffffffff1916908160001a905350600a85612793919061416e565b9450612711565b8093505050505b919050565b505050565b6008805490506009600083815260200190815260200160002081905550600881908060018154018082558091505060019003906000526020600020016000909190919091505550565b6000600161280184610d8e565b61280b9190613c68565b90506000600760008481526020019081526020016000205490508181146128f0576000600660008673ffffffffffffffffffffffffffffffffffffffff1673ffffffffffffffffffffffffffffffffffffffff168152602001908152602001600020600084815260200190815260200160002054905080600660008773ffffffffffffffffffffffffffffffffffffffff1673ffffffffffffffffffffffffffffffffffffffff168152602001908152602001600020600084815260200190815260200160002081905550816007600083815260200190815260200160002081905550505b6007600084815260200190815260200160002060009055600660008573ffffffffffffffffffffffffffffffffffffffff1673ffffffffffffffffffffffffffffffffffffffff16815260200190815260200160002060008381526020019081526020016000206000905550505050565b600060016008805490506129759190613c68565b90506000600960008481526020019081526020016000205490506000600883815481106129a5576129a461366e565b5b9060005260206000200154905080600883815481106129c7576129c661366e565b5b906000526020600020018190555081600960008381526020019081526020016000208190555060096000858152602001908152602001600020600090556008805480612a1657612a1561419f565b5b6001900381819060005260206000200160009055905550505050565b6000612a3d83610d8e565b905081600660008573ffffffffffffffffffffffffffffffffffffffff1673ffffffffffffffffffffffffffffffffffffffff168152602001908152602001600020600083815260200190815260200160002081905550806007600084815260200190815260200160002081905550505050565b828054612abd906133cb565b90600052602060002090601f016020900481019282612adf5760008555612b26565b82601f10612af857805160ff1916838001178555612b26565b82800160010185558215612b26579182015b82811115612b25578251825591602001919060010190612b0a565b5b509050612b339190612b37565b5090565b5b80821115612b50576000816000905550600101612b38565b5090565b6000604051905090565b600080fd5b600080fd5b60007fffffffff0000000000000000000000000000000000000000000000000000000082169050919050565b612b9d81612b68565b8114612ba857600080fd5b50565b600081359050612bba81612b94565b92915050565b600060208284031215612bd657612bd5612b5e565b5b6000612be484828501612bab565b91505092915050565b60008115159050919050565b612c0281612bed565b82525050565b6000602082019050612c1d6000830184612bf9565b92915050565b600081519050919050565b600082825260208201905092915050565b60005b83811015612c5d578082015181840152602081019050612c42565b83811115612c6c576000848401525b50505050565b6000601f19601f8301169050919050565b6000612c8e82612c23565b612c988185612c2e565b9350612ca8818560208601612c3f565b612cb181612c72565b840191505092915050565b60006020820190508181036000830152612cd68184612c83565b905092915050565b6000819050919050565b612cf181612cde565b8114612cfc57600080fd5b50565b600081359050612d0e81612ce8565b92915050565b600060208284031215612d2a57612d29612b5e565b5b6000612d3884828501612cff565b91505092915050565b600073ffffffffffffffffffffffffffffffffffffffff82169050919050565b6000612d6c82612d41565b9050919050565b612d7c81612d61565b82525050565b6000602082019050612d976000830184612d73565b92915050565b612da681612d61565b8114612db157600080fd5b50565b600081359050612dc381612d9d565b92915050565b60008060408385031215612de057612ddf612b5e565b5b6000612dee85828601612db4565b9250506020612dff85828601612cff565b9150509250929050565b612e1281612cde565b82525050565b6000602082019050612e2d6000830184612e09565b92915050565b600080fd5b7f4e487b7100000000000000000000000000000000000000000000000000000000600052604160045260246000fd5b612e7082612c72565b810181811067ffffffffffffffff82111715612e8f57612e8e612e38565b5b80604052505050565b6000612ea2612b54565b9050612eae8282612e67565b919050565b600067ffffffffffffffff821115612ece57612ecd612e38565b5b602082029050602081019050919050565b600080fd5b6000612ef7612ef284612eb3565b612e98565b90508083825260208201905060208402830185811115612f1a57612f19612edf565b5b835b81811015612f435780612f2f8882612cff565b845260208401935050602081019050612f1c565b5050509392505050565b600082601f830112612f6257612f61612e33565b5b8135612f72848260208601612ee4565b91505092915050565b60008060408385031215612f9257612f91612b5e565b5b6000612fa085828601612cff565b925050602083013567ffffffffffffffff811115612fc157612fc0612b63565b5b612fcd85828601612f4d565b9150509250929050565b600080600060608486031215612ff057612fef612b5e565b5b6000612ffe86828701612db4565b935050602061300f86828701612db4565b925050604061302086828701612cff565b9150509250925092565b6000602082840312156130405761303f612b5e565b5b600061304e84828501612db4565b91505092915050565b600080fd5b60008083601f84011261307257613071612e33565b5b8235905067ffffffffffffffff81111561308f5761308e613057565b5b6020830191508360018202830111156130ab576130aa612edf565b5b9250929050565b600080602083850312156130c9576130c8612b5e565b5b600083013567ffffffffffffffff8111156130e7576130e6612b63565b5b6130f38582860161305c565b92509250509250929050565b600081519050919050565b600082825260208201905092915050565b6000613126826130ff565b613130818561310a565b9350613140818560208601612c3f565b61314981612c72565b840191505092915050565b60006040820190506131696000830185612bf9565b818103602083015261317b818461311b565b90509392505050565b6000819050919050565b61319781613184565b82525050565b60006020820190506131b2600083018461318e565b92915050565b6131c181612bed565b81146131cc57600080fd5b50565b6000813590506131de816131b8565b92915050565b600080604083850312156131fb576131fa612b5e565b5b600061320985828601612db4565b925050602061321a858286016131cf565b9150509250929050565b600080fd5b600067ffffffffffffffff82111561324457613243612e38565b5b61324d82612c72565b9050602081019050919050565b82818337600083830152505050565b600061327c61327784613229565b612e98565b90508281526020810184848401111561329857613297613224565b5b6132a384828561325a565b509392505050565b600082601f8301126132c0576132bf612e33565b5b81356132d0848260208601613269565b91505092915050565b600080600080608085870312156132f3576132f2612b5e565b5b600061330187828801612db4565b945050602061331287828801612db4565b935050604061332387828801612cff565b925050606085013567ffffffffffffffff81111561334457613343612b63565b5b613350878288016132ab565b91505092959194509250565b6000806040838503121561337357613372612b5e565b5b600061338185828601612db4565b925050602061339285828601612db4565b9150509250929050565b7f4e487b7100000000000000000000000000000000000000000000000000000000600052602260045260246000fd5b600060028204905060018216806133e357607f821691505b602082108114156133f7576133f661339c565b5b50919050565b7f4552433732313a20617070726f76616c20746f2063757272656e74206f776e6560008201527f7200000000000000000000000000000000000000000000000000000000000000602082015250565b6000613459602183612c2e565b9150613464826133fd565b604082019050919050565b600060208201905081810360008301526134888161344c565b9050919050565b7f4552433732313a20617070726f76652063616c6c6572206973206e6f7420746f60008201527f6b656e206f776e6572206e6f7220617070726f76656420666f7220616c6c0000602082015250565b60006134eb603e83612c2e565b91506134f68261348f565b604082019050919050565b6000602082019050818103600083015261351a816134de565b9050919050565b60006040820190506135366000830185612d73565b6135436020830184612d73565b9392505050565b7f4552433732313a2063616c6c6572206973206e6f7420746f6b656e206f776e6560008201527f72206e6f7220617070726f766564000000000000000000000000000000000000602082015250565b60006135a6602e83612c2e565b91506135b18261354a565b604082019050919050565b600060208201905081810360008301526135d581613599565b9050919050565b7f455243373231456e756d657261626c653a206f776e657220696e646578206f7560008201527f74206f6620626f756e6473000000000000000000000000000000000000000000602082015250565b6000613638602b83612c2e565b9150613643826135dc565b604082019050919050565b600060208201905081810360008301526136678161362b565b9050919050565b7f4e487b7100000000000000000000000000000000000000000000000000000000600052603260045260246000fd5b6000819050919050565b6136b08161369d565b82525050565b600067ffffffffffffffff82169050919050565b6136d3816136b6565b82525050565b600061ffff82169050919050565b6136f0816136d9565b82525050565b600063ffffffff82169050919050565b61370f816136f6565b82525050565b600060a08201905061372a60008301886136a7565b61373760208301876136ca565b61374460408301866136e7565b6137516060830185613706565b61375e6080830184613706565b9695505050505050565b60008151905061377781612ce8565b92915050565b60006020828403121561379357613792612b5e565b5b60006137a184828501613768565b91505092915050565b7f455243373231456e756d657261626c653a20676c6f62616c20696e646578206f60008201527f7574206f6620626f756e64730000000000000000000000000000000000000000602082015250565b6000613806602c83612c2e565b9150613811826137aa565b604082019050919050565b60006020820190508181036000830152613835816137f9565b9050919050565b7f4552433732313a20696e76616c696420746f6b656e2049440000000000000000600082015250565b6000613872601883612c2e565b915061387d8261383c565b602082019050919050565b600060208201905081810360008301526138a181613865565b9050919050565b7f4552433732313a2061646472657373207a65726f206973206e6f74206120766160008201527f6c6964206f776e65720000000000000000000000000000000000000000000000602082015250565b6000613904602983612c2e565b915061390f826138a8565b604082019050919050565b60006020820190508181036000830152613933816138f7565b9050919050565b600069ffffffffffffffffffff82169050919050565b6139598161393a565b811461396457600080fd5b50565b60008151905061397681613950565b92915050565b61398581613184565b811461399057600080fd5b50565b6000815190506139a28161397c565b92915050565b600080600080600060a086880312156139c4576139c3612b5e565b5b60006139d288828901613967565b95505060206139e388828901613993565b94505060406139f488828901613768565b9350506060613a0588828901613768565b9250506080613a1688828901613967565b9150509295509295909350565b7f4f776e61626c653a206e6577206f776e657220697320746865207a65726f206160008201527f6464726573730000000000000000000000000000000000000000000000000000602082015250565b6000613a7f602683612c2e565b9150613a8a82613a23565b604082019050919050565b60006020820190508181036000830152613aae81613a72565b9050919050565b7f4e487b7100000000000000000000000000000000000000000000000000000000600052601260045260246000fd5b6000613aef82612cde565b9150613afa83612cde565b925082613b0a57613b09613ab5565b5b828206905092915050565b7f4552433732313a207472616e736665722066726f6d20696e636f72726563742060008201527f6f776e6572000000000000000000000000000000000000000000000000000000602082015250565b6000613b71602583612c2e565b9150613b7c82613b15565b604082019050919050565b60006020820190508181036000830152613ba081613b64565b9050919050565b7f4552433732313a207472616e7366657220746f20746865207a65726f2061646460008201527f7265737300000000000000000000000000000000000000000000000000000000602082015250565b6000613c03602483612c2e565b9150613c0e82613ba7565b604082019050919050565b60006020820190508181036000830152613c3281613bf6565b9050919050565b7f4e487b7100000000000000000000000000000000000000000000000000000000600052601160045260246000fd5b6000613c7382612cde565b9150613c7e83612cde565b925082821015613c9157613c90613c39565b5b828203905092915050565b6000613ca782612cde565b9150613cb283612cde565b9250827fffffffffffffffffffffffffffffffffffffffffffffffffffffffffffffffff03821115613ce757613ce6613c39565b5b828201905092915050565b7f4f776e61626c653a2063616c6c6572206973206e6f7420746865206f776e6572600082015250565b6000613d28602083612c2e565b9150613d3382613cf2565b602082019050919050565b60006020820190508181036000830152613d5781613d1b565b9050919050565b7f45524337323155524953746f726167653a2055524920736574206f66206e6f6e60008201527f6578697374656e7420746f6b656e000000000000000000000000000000000000602082015250565b6000613dba602e83612c2e565b9150613dc582613d5e565b604082019050919050565b60006020820190508181036000830152613de981613dad565b9050919050565b60006080820190508181036000830152613e0a8187612c83565b9050613e196020830186612e09565b8181036040830152613e2b8185612c83565b90508181036060830152613e3f8184612c83565b905095945050505050565b7f4552433732313a20617070726f766520746f2063616c6c657200000000000000600082015250565b6000613e80601983612c2e565b9150613e8b82613e4a565b602082019050919050565b60006020820190508181036000830152613eaf81613e73565b9050919050565b7f4552433732313a207472616e7366657220746f206e6f6e20455243373231526560008201527f63656976657220696d706c656d656e7465720000000000000000000000000000602082015250565b6000613f12603283612c2e565b9150613f1d82613eb6565b604082019050919050565b60006020820190508181036000830152613f4181613f05565b9050919050565b600081905092915050565b6000613f5e82612c23565b613f688185613f48565b9350613f78818560208601612c3f565b80840191505092915050565b6000613f908285613f53565b9150613f9c8284613f53565b91508190509392505050565b6000613fb382612cde565b91507fffffffffffffffffffffffffffffffffffffffffffffffffffffffffffffffff821415613fe657613fe5613c39565b5b600182019050919050565b60006080820190506140066000830187612d73565b6140136020830186612d73565b6140206040830185612e09565b8181036060830152614032818461311b565b905095945050505050565b60008151905061404c81612b94565b92915050565b60006020828403121561406857614067612b5e565b5b60006140768482850161403d565b91505092915050565b600061408b8284613f53565b915081905092915050565b7f4552433732313a206d696e7420746f20746865207a65726f2061646472657373600082015250565b60006140cc602083612c2e565b91506140d782614096565b602082019050919050565b600060208201905081810360008301526140fb816140bf565b9050919050565b7f4552433732313a20746f6b656e20616c7265616479206d696e74656400000000600082015250565b6000614138601c83612c2e565b915061414382614102565b602082019050919050565b600060208201905081810360008301526141678161412b565b9050919050565b600061417982612cde565b915061418483612cde565b92508261419457614193613ab5565b5b828204905092915050565b7f4e487b7100000000000000000000000000000000000000000000000000000000600052603160045260246000fdfea2646970667358221220cd180d1f85b77aeacc2e43458f35522bc6b36ee97e27ee1064d6956e78cb7d2b64736f6c6343000809003368747470733a2f2f697066732e696f2f697066732f516d646355526d4e316b4545744b676e626b564a4a3868726d73535748705a764c6b5267734b4b6f6957765739673f66696c656e616d653d73696d706c655f62756c6c2e6a736f6e68747470733a2f2f697066732e696f2f697066732f516d5258796669336f4e5a43756244786956467265336b4c5a3858654774367051736e4151525a37616b68534e733f66696c656e616d653d67616d65725f62756c6c2e6a736f6e68747470733a2f2f697066732e696f2f697066732f516d624b68425856576d777259735450465966726f52324e374e41656b414d78485556673243576b73376939716a3f66696c656e616d653d73696d706c655f626561722e6a736f6e68747470733a2f2f697066732e696f2f697066732f516d6478394878374643445a474578796a4c52367659636e75745552384b68425a426e5a6641504869556f6d6d4e3f66696c656e616d653d6265616e69655f626561722e6a736f6e68747470733a2f2f697066732e696f2f697066732f516d524a5646654d7274595332435556554d3263484a70425635615832787572706e73665a784c545451626944333f66696c656e616d653d70617274795f62756c6c2e6a736f6e68747470733a2f2f697066732e696f2f697066732f516d54564c79545375694b4755456d6238384267584733714e4338596770485a6946626a4872584b4833514845753f66696c656e616d653d636f6f6c696f5f626561722e6a736f6e",
  "linkReferences": {},
  "deployedLinkReferences": {}
}